:020000040800F2
:10000000681500201502000851020008530200087C
:1000100055020008570200085902000800000000BD
:100020000000000000000000000000005B0200086B
:100030005D020008000000005F0200086102000885
:1000400063020008630200086302000863020008FC
:1000500063020008630200086302000863020008EC
:1000600063020008630200086302000863020008DC
:1000700063020008630200086302000863020008CC
:1000800063020008630200086302000863020008BC
:1000900063020008630200086302000863020008AC
:1000A000630200086302000863020008630200089C
:1000B000630200086302000863020008630200088C
:1000C000630200086302000863020008630200087C
:1000D000630200086302000863020008630200086C
:1000E000630200086302000863020008630200085C
:1000F000630200086302000863020008630200084C
:10010000630200086302000863020008630200083B
:10011000630200086302000863020008630200082B
:10012000630200086302000863020008630200081B
:10013000630200086302000863020008630200080B
:1001400063020008630200086302000863020008FB
:1001500063020008630200086302000863020008EB
:1001600063020008630200086302000863020008DB
:100170006302000863020008630200080000000038
:10018000630200086302000800F002F800F033F890
:100190000AA090E8000C82448344AAF10107DA45E2
:1001A00001D100F028F8AFF2090EBAE80F0013F001
:1001B000010F18BFFB1A43F001031847080E000097
:1001C000180E00000023002400250026103A28BF46
:1001D00078C1FBD8520728BF30C148BF0B607047B9
:1001E000752900F06D80002070471FB500F0DCFE1F
:1001F0001FBD10B510BD00F094F91146FFF7F5FFD3
:1002000000F062FE00F0B2F903B4FFF7F2FF03BCA6
:1002100000F0BAF916481749174B99423CBF50F8FD
:10022000042B41F8042BF8D314494FF000028B4201
:1002300038BF43F8042BFAD3DFF84400016841F4D7
:1002400070010160BFF34F8FBFF36F8F0D48004700
:10025000FEE7FEE7FEE7FEE7FEE7FEE7FEE7FEE776
:10026000FEE7FEE708480949094A0A4B70470000C3
:10027000D40F0008000000200000002068150020B6
:1002800088ED00E089010008680000206815002062
:1002900068050020680500200FB41CB5074B06AAAE
:1002A0007B4469460090059800F023F900206946D8
:1002B00000F032F91CBC5DF814FB00007502000070
:1002C0002DE9F0410646002410687529314616A52F
:1002D00010D0AFF30080002802DA404213A507E0F7
:1002E00031688A0701D512A502E0490704D511A596
:1002F000012401E0AFF3008000210A2206F1240767
:1003000009E0B0FBF2FCB0FBF2F302FB1C00303062
:1003100078541846491C0028F3D123462A46304613
:10032000BDE8F04100F086B8000000002D0000009C
:100330002B000000200000002DE9F0410F4605468B
:10034000002028622846E968884770B3252805D030
:10035000D5E901219047286A401CF2E7E968284660
:10036000002688476C2804460AD0682C08D04C2CFC
:1003700035D06A2C31D0742C31D07A2C2FD016E0A5
:10038000E968064628468847B042044608D16C2EE4
:1003900023D04FF480662846E9688847044606E083
:1003A0006C2E03D04FF4807601E01EE04026E4B1CD
:1003B000A4F14100192802D8203446F400663A46D8
:1003C000214628462E60FFF70BFF60B1012808D0B8
:1003D000FF1D27F007070837B4E78026DBE7002674
:1003E000D9E73F1DAEE72046B2E7286ABDE8F081B5
:1003F00010B5431C02E010F8011B71B18107FAD15E
:100400004FF0013202C88C1A8C4314EAC211F9D0A1
:10041000C01A0A0603D0C01E10BDC01A10BD0A04BF
:1004200001D0801E10BD0902FCD0401E10BD7047D7
:10043000704770472DE9F0470D46994692460446AD
:1004400000F124080168880604D5E06921F0100154
:10045000216000E00120A84201DD471B00E00027E9
:10046000A1697A1902EB0900081AA0612078C00678
:1004700002D42046AFF30080002608E0D4E9012131
:100480001AF806009047206A401C761C20624E45F0
:10049000F4DB2078C0060AD52046AFF3008006E0E2
:1004A000D4E9012130209047206A401C2062381E88
:1004B000A7F10107F4DC07E0D4E9012118F80500F1
:1004C0009047206A401C2062281EA5F10105F3DC3C
:1004D0002046AFF300802078000602D50220BDE858
:1004E000F0870120FBE7000001694A1C02610878DF
:1004F000704700B58FB0CDE9013100210591054964
:100500007944CDE9031011466846FFF715FF0FB097
:1005100000BD0000E5FFFFFF0A6802F8010B0A605A
:100520007047754600F02CF8AE4605006946534604
:1005300020F00700854618B020B5FFF793FEBDE810
:1005400020404FF000064FF000074FF000084FF03A
:10055000000BAC46ACE8C009ACE8C009ACE8C00987
:10056000ACE8C00921F007018D46704710B504467C
:10057000AFF300802046BDE81040FFF745BE000005
:10058000004870470000002001491820ABBEFEE77C
:10059000260002007047000081B00820C5F2040068
:1005A0000168890003D5016821F0005101600168EC
:1005B00041F0805101604FF4C8600090009828B16C
:1005C00000980138009000980028F9D101B07047D8
:1005D0000420C4F20100016841F48071016040F21E
:1005E0000830C5F20400016841F48001016001682F
:1005F00021F470110160016821F44031016001684B
:1006000041F480310160016821F01F0101607047F1
:1006100010B50024C5F2040400F02CFC206840074B
:1006200003D5206840F0040020602068000758BF10
:1006300010BD206840F00800206010BD10B50C24EB
:10064000C5F2040400F026FB41F22C00C4F20200C3
:10065000016A41F400510162016841F400510160F6
:100660000168016821F40051016000F03BF8FFF7D8
:10067000AFFFFFF791FF206820F01800206020688E
:1006800040F400502060206820F020002060606A64
:1006900020F00F006062606A20F4F8606062606AB7
:1006A00040F4C0706062D4F8A40020F04000C4F8A8
:1006B000A400A06820F4E010A060A06840F44020EE
:1006C000A060206820F44060206054F8040C40F0E2
:1006D000010044F8040C00BF54F80C0CC007FBD018
:1006E00010BD000041F24C00C4F20200016841F06C
:1006F000010101604FF09040016841F03C01016050
:100700000C20C4F60000016821F03C010160016A80
:1007100041F0020101627047B0B584B041F24C0073
:10072000C4F202000168022241F01001016041F2AE
:100730000000C4F60000016821F0C00101600168FA
:1007400041F040010160416941F0080141614FF40D
:100750001940ADF80A000DF10A01942000F0D0F81C
:10076000002501950198B0F5C87F06DA019801309F
:1007700001900198B0F5C87FF8DB48F247000DF111
:100780000A04ADF80A0094202146022200F0B8F8CD
:100790004BF63230ADF80A0094202146022200F0D8
:1007A000AFF843F63230ADF80A0094202146022219
:1007B00000F0A6F8942021460222ADF80A5000F07D
:1007C0009FF804B0B0BD000041F24C00C4F202003A
:1007D000016841F00201016040F20040C4F60000EF
:1007E000016821F470410160016841F42041016019
:1007F000C16821F47041C160C16841F4A041C16089
:10080000416841F0C0014160816821F4704181601C
:10081000816841F420418160016A21F07F410162D9
:10082000016A41F0884101627047000041F23800DE
:10083000C4F20200016A41F400110162016D21F469
:1008400040510165016D41F480510165016841F439
:1008500000110160016821F40011016045F20040BF
:10086000C4F20000016821F001010160016821F477
:1008700080510160016821F470610160016841F0FC
:1008800080010160016821F480110160016821F498
:100890000031016000210161016921F070410161B5
:1008A000016941F0E0410161016941F031010161FB
:1008B000016941F444510161016941F46001016140
:1008C000016941F470210161816821F40041816076
:1008D00048F252018160816821F4004181604168E1
:1008E00021F400614160416841F00071416041685C
:1008F00041F400414160016841F00101016070472D
:10090000F0B581B006464FF0FF0061B3144652B314
:1009100045F218470D46C4F2000700F053F8304680
:1009200021460022002600F021F800960098A042FF
:100930000ADA38688007FCD50098285C386100988E
:1009400001300090F2E700BF386840065CBF3868AD
:100950005FEAC060F8D53868C00603D400F022F81A
:10096000002000E0FF2040B201B0F0BD80B545F2AC
:10097000044CC4F2000CDCF800E049F60003CFF6AA
:1009800000436FF39F2003EA0E0340EA0140012A6F
:1009900008BF03F58063184400F50050CCF8000050
:1009A00080BD000045F20440C4F20000016841F43B
:1009B0008041016041698906FCD5816941F02001CF
:1009C0008161704745F21840C4F2000001680904D3
:1009D000FCD4704741F24C00C4F20200016841F0BF
:1009E0001001016041F20000C4F60000016821F02E
:1009F00030010160016841F020010160416821F08F
:100A000004014160816841F030018160C16821F0DA
:100A10003001C160016A21F470610162016A41F430
:100A2000506101627047000045F20440C4F20100C9
:100A3000016821F400210160016841F48031016006
:100A4000016841F4803101607047000080B50020EA
:100A5000002100F09BFA0120E32100F097FA022028
:100A60009E2100F093FA0420AF2100F08FFA0520B8
:100A7000812100F08BFA0620842100F087FA0720FC
:100A8000002100F083FA0820812100F07FFA09207C
:100A9000812100F07BFA0A20002100F077FA0C2077
:100AA000002100F073FA0D20602100F06FFA0E2093
:100AB000062100F06BFA0F20002100F067FA1420E5
:100AC000002100F063FA1520002100F05FFA1A20DF
:100AD0000A2100F05BFA1B200A2100F057FA1C20C3
:100AE000002100F053FA1D20002100F04FFA1E20D3
:100AF000002100F04BFA1F200F2100F047FA2020C0
:100B0000E52100F043FA2120E52100F03FFA222000
:100B1000002100F03BFA2320002100F037FA2420C6
:100B2000002100F033FA2520002100F02FFA2620C2
:100B3000002100F02BFA2720002100F027FA2820BE
:100B40007F2100F023FA2920C02100F01FFA2E2077
:100B5000002100F01BFA2F20002100F017FA3020AE
:100B6000002100F013FA3120002100F00FFA3420A8
:100B70005F2100F00BFA80BD42F20001C4F20201D5
:100B8000086820F0070008600A6841F2000042F09F
:100B90000202C4F202000A60016841F4807101603F
:100BA00001684905FCD5416821F0F8514160416870
:100BB00041F080514160016821F08071016000BF07
:100BC00001688901FCD4C168142221F00301C160CD
:100BD000C16841F00201C160C16862F30E21C160C9
:100BE000C168012262F30611C160C16821F0C061D1
:100BF000C160C16841F08071C160016841F08071DD
:100C0000016000BF01688901FCD5816821F0030102
:100C10008160816841F00301816000BF816801F05B
:100C20000C010C29FAD1816821F0F0018160816802
:100C300021F4E0618160816821F460518160016884
:100C400021F08061016000BF01684901FCD40169A5
:100C500021F4FE410161016941F4C0510161016962
:100C600041F400310161016941F4803101610168A1
:100C700041F08061016000BF01684901FCD5D0F8F6
:100C8000881021F44001C0F88810016E41F4001171
:100C90000166704741F25800C4F2020001684FF645
:100CA0008F7241F00401016040F60000C4F20000C0
:100CB0000168CFF6FE7221F060010160016821F049
:100CC00010010160416821F070014160416841F408
:100CD00070014160816911408161816941F0600169
:100CE00081610721816240F2E731C1624FF4FA71FC
:100CF0004163016A41F001010162016841F00101B3
:100D00000160704741F24C00C4F20200016841F0FA
:100D10000801016040F60040C4F60000016821F4BB
:100D200070510160016841F420510160016A41F095
:100D3000EE610162816841F470518160C16821F403
:100D40007051C160C16841F4A051C160416821F097
:100D5000600141607047000080B541F28800C4F234
:100D6000020050F8301C41F4003140F8301C01689A
:100D700021F00C010160016841F004010160FFF7FE
:100D8000C1FF44F20040C4F2000000F001F880BD51
:100D9000016844F2004221F0010101600168C4F2DF
:100DA000000221F0102101600168904221F400410D
:100DB0000160416821F44051416042F28D01C160FF
:100DC000016841F00C01016022D044F60041C4F2F8
:100DD000000188422CD1016841F0200101600168C6
:100DE00021F040010160016821F0100101600168FB
:100DF00021F080010160016821F4807101600168C7
:100E000021F040010160016821F0010101600FE063
:100E100044F22041C4F200010A6842F040020A6034
:100E200043F60801C4F201010A6842F0C0020A60F8
:100E3000016841F001010160C1698902FCD500BF70
:100E4000C1694902FCD5704762B14FF0000C00BF88
:100E5000C3691B06FCD511F80C300CF1010C94454C
:100E60000385F5D1C1694906FCD5C16921F040016E
:100E7000C16170474EF28020CEF200004FF4802115
:100E80000160704780B540F27D41884202D800F091
:100E90006DF880BD40F2D761884202D300F05EF861
:100EA00080BD00F06BF880BDB0B50D4601461C203A
:100EB000144600F06BF81D20294600F067F81E204C
:100EC000214600F063F8B0BD88B00827C5F20407DA
:100ED000FFF752FEFFF740FFFFF7B0FBFFF774FC90
:100EE000FFF7A4FCFFF776FDFFF79EFDFFF714FC6C
:100EF000FFF7ACFD40F2600444F20046C2F2000489
:100F00000FF244086D46C4F2000600BF386840F096
:100F10000400386057F8080C4007FBD5B86B414611
:100F2000206022682846FFF7B7F92846FFF760FAE5
:100F3000024630462946FFF787FFFFF769FB206826
:100F4000FFF7A0FFE2E700BF4144432056616C7504
:100F5000653A20256C750D0A0000000080B5F1206F
:100F600000218022FFF7A0FF80BD000080B5D120C6
:100F700000218022FFF798FF80BD000080B5D120BE
:100F800007218022FFF790FF80BD000080B582B06E
:100F90008DF806008DF807100DF10601942002224D
:100FA000FFF7AEFC02B080BDF1EE100A4FF6FF7104
:100FB000C0F2C03120EA010040F04070E1EE100ABA
:100FC00070470000D40F00080000002068150000E2
:040FD000C401000850
:040000050800018965
:00000001FF
